:020000040000FA
:02000000402896
:0200080062286C
:10008000000083120313C0308B000030A0000A3040
:10009000A100831603130C168601FF308800803000
:1000A00087009801181519309900831203139801DD
:1000B00098178316031398168312031383120313DE
:1000C0000C165E28831203130C1E5E288312031382
:1000D0008B130B130C12831603130C12981C5E283F
:1000E0007A28831203130B178B170C128316031332
:1000F0000C1609008312031306089900852092202C
:10010000A00A2008A10B712840280530B000FF305C
:10011000B100FF30B200B20B8B28B10B8928B00BB5
:1001200087280800D72001308800881F9A28FF30D0
:100130008600D528081F9F2809308600D528881EEC
:10014000A42806308600D528081EA928033086007A
:10015000D52802308800881FB02800308600D528B6
:10016000081FB52808308600D528881EBA28053013
:100170008600D528081EBF2802308600D528043006
:100180008800881FC628FF308600D528081FCB2886
:1001900007308600D528881ED02804308600D52850
:1001A000081ED62801308600D528DF2008008316D7
:1001B0000313F03088008601831203130800B00097
:0C01C000FF30A000A00FE228300808006B
:00000001FF
